:100000000C9498000C94C0000C94C0000C94C00098
:100010000C94C0000C94C0000C94C0000C94C00060
:100020000C94C0000C94C0000C94C0000C94C00050
:100030000C94C0000C94C0000C94C0000C94C00040
:100040000C943E070C94C0000C943F060C941906C7
:100050000C94C0000C94C0000C94C0000C94C00020
:100060000C94C0000C94C000280A380A150B300C00
:10007000F40CF80C000D270D4E0D610B670B770B80
:10008000890BA30BCC0BF00BAA0CAC0CAE0CAE0C7A
:10009000B00CB20CB40CE30CE50CE70CE70CE90C6B
:1000A000EB0CED0C0C0E140E260E380E4B0E7E0EC5
:1000B000BC0E98079C07A207A807AE07B407BA07AB
:1000C000C0071112131415160A0B0C0D0E0F0000A9
:1000D0000000240027002A00000000002300260062
:1000E00029000001020304050404040404040404B8
:1000F00002020202020203030303030301020408D3
:100100001020408001020408102001020408102081
:1001100000000000250028002B000000000800025D
:1001200001000003040700000000000000004D0F64
:1001300011241FBECFEFD8E0DEBFCDBF11E0A0E09D
:10014000B1E0E4E8F3E202C005900D92A431B107FA
:10015000D9F727E0A4E1B1E001C01D92AB3AB207A4
:10016000E1F710E0C8E9D0E004C02197FE010E9449
:10017000C30FC739D107C9F70E94F1070C94C0110A
:100180000C9400008F929F92AF92BF92CF92DF9219
:10019000EF92FF92CF93DF93A0919B07882311F0FA
:1001A0003A2F01C030E080919C0790E0880F991FA2
:1001B00088529F4FC090A107D090A207E090A3075C
:1001C000F090A40740E050E0BA01FC01C591D49141
:1001D00028812A2323130FC04A015B012FEF821AC3
:1001E000920AA20AB20A4C155D056E057F0538F425
:1001F000B501A401EACF342F252FCB0104C030E094
:1002000020E080E090E0632F722FDF91CF91FF908C
:10021000EF90DF90CF90BF90AF909F908F90089518
:10022000FC01918D828D981761F0828DDF01A80FFE
:10023000B11D5D968C91928D9F5F9F73928F90E020
:1002400008958FEF9FEF0895FC01918D828D98178F
:1002500031F0828DE80FF11D858D90E008958FEFCC
:100260009FEF0895FC01918D228D892F90E0805C95
:100270009F4F821B91098F739927089580E090E02A
:10028000892B29F00E940D0681110C94000008951D
:10029000CF93DF939CB59F7D9CBD9CB5937F9CBD08
:1002A0009CB59C7F9CBD9DB591609DBDCEE7D7E080
:1002B000682F89810E9471068A899B89DF91CF917D
:1002C0000C94F90681E00C94480180E00C944801FC
:1002D000CF93DF931F92CDB7DEB789830E9465016C
:1002E00089810E94880789830E94620189810F9019
:1002F000DF91CF91089581EE0C946801CF93DF9345
:100300001F92CDB7DEB789830E94650189818F7105
:100310000E9488078FEF0E94880789830E946201EC
:1003200089810F90DF91CF9108951F93CF93DF9331
:1003300000D0CDB7DEB76A8389830E9465018981C9
:100340008F7180620E948807182F6A81862F0E9411
:1003500088070E946201812F0F900F90DF91CF914B
:100360001F910895EF92FF920F931F93CF93DF9306
:1003700000D01F92CDB7DEB7162F4A837B838983C7
:100380000E94650189818F7180620E948807082F11
:10039000E12E7B81F72E4A81140F1E1531F0F701F3
:1003A00081917F010E948807F8CF0E946201802F0F
:1003B0000F900F900F90DF91CF911F910F91FF90B1
:1003C000EF900895682F80917E0790917F078913A1
:1003D0000C947106089580E00E947E0181FD0BC09F
:1003E000682F626080E00E94950165E070E080E027
:1003F00090E00C94040708950E94EB0180E00E94B5
:100400007E01682F616080E00E94950160E787E0CF
:100410000E94950181E00E94E20180918507882376
:1004200041F040918A0765E877E08AE00E94B201D6
:1004300012C082E00E947E01E2EEF0E0E49121E051
:1004400030E001C0220FEA95EAF72095622F682379
:1004500082E00E9495018DE10E947E0181FD0C9455
:100460007B010895DF92EF92FF920F931F93CF933A
:10047000DF931F92CDB7DEB7F82E20918307E62ECB
:10048000261708F4E22E80918407811103C0D22E32
:10049000DE1801C0D12C99830E94650180EA0E9478
:1004A00088070F2D9981192FFE0CF01631F0F801F5
:1004B00081918F010E948807F8CFDD2029F080E02C
:1004C0000E948807DA94F9CF0E94620181E00E94BD
:1004D000E2018FEF0E9468018073D9F380E00E94EF
:1004E000E20160E787E00E94950184FF04C00E945A
:1004F0007B0180E001C081E00F90DF91CF911F91DF
:100500000F91FF90EF90DF90089580E00E94E2014C
:1005100080918C0790918D070E94F9068DE10E94D1
:100520007E0181FF08C080918C0790918D070E9409
:10053000F9060E947B0180E00E947E01682F6E7F99
:1005400080E00E94950182E00E947E01E2EEF0E0F0
:10055000E49161E070E001C0660FEA95EAF7682B6C
:1005600082E00C949501E2E4F7E0838984A3809112
:10057000D90585A30E94850262E086E697E00E9485
:1005800032020C94FC01209127013091280170E087
:100590008217930760F4FC01E60FF71FEA5DFE4F38
:1005A0004381FC01EA5DFE4F43830196F1CFC9010F
:1005B000861B970B90932801809327010F9621E0CB
:1005C000813B944008F420E0209326010895909107
:1005D000DA05981790F0282F30E0F901EE0FFF1F91
:1005E000E352FA4F40815181220F331FF901E55246
:1005F000FA4F518340838F5FECCF91509093DA058F
:1006000008953F924F925F926F927F928F929F9246
:10061000AF92BF92CF92DF92EF92FF920F931F9310
:10062000CF93DF9300D000D0CDB7DEB73090DA059E
:10063000E32DF0E0AC014A5D5E4F6A0124E0C20E9A
:10064000D11C8A010B5F1F4F7A0137E0E30EF11CCA
:10065000DA011696BA83A983309729F49093DC05C2
:100660008093DB057FC09F01220F331F27523A4F33
:10067000D9010D90BC91A02DBC83AB83D6018C9089
:10068000912CA12CB12CB82CAA2499248824D8010F
:100690004C9150E060E070E0BA0155274427840E89
:1006A000951EA61EB71ED7012C91B501A401420FBD
:1006B000511D611D711DA981BA818C90912CA12CB5
:1006C000B12CBA2CA92C982C8824840E951EA61E19
:1006D000B71E2B813C812A5D3E4FD90114964C9068
:1006E0001497512C612C712C742C662455244424AD
:1006F00015964C91159750E060E070E0BA015527CF
:100700004427440D551D661D771D17967C9017973D
:10071000470D511D611D711D16964C90512C612C79
:10072000712C762C652C542C4424440D551D661DCB
:10073000771D9F012F5F3F4F220F331F84169506B1
:10074000A606B70640F427523A4F4B815C81D90187
:100750004D935C9307C0F901E752FA4F9183808370
:10076000EFEFFFEF3197F7FF77CF33943092DA0551
:100770000F900F900F900F90DF91CF911F910F91DD
:10078000FF90EF90DF90CF90BF90AF909F908F90B1
:100790007F906F905F904F903F900895CF92DF923F
:1007A000EF92FF920F931F93CF93DF93CDB7DEB7F6
:1007B000C054D1400FB6F894DEBF0FBECDBF2FB7E7
:1007C000F8948091220190912301A0912401B0918D
:1007D00025012FBF40919D0750919E0760919F0773
:1007E0007091A0078C019D01041B150B260B370B84
:1007F000B901A801403D57406105710518F4809189
:10080000A507BCC080939D0790939E07A0939F0768
:10081000B093A0071092980710929707109296072E
:10082000109295071092940761E0809199070E94B9
:1008300071066AEF70E080E090E00E94040761E0DA
:10084000809199070E94BD0660E0809199070E94FF
:10085000710664E170E080E090E00E940407F89483
:1008600061E0809199070E9471068BE990E0019701
:10087000F1F762E0809199070E94BD0683E290E063
:100880000197F1F780E00E94C200672B682B692B6B
:1008900021F41092A50778943EC081E00E94C20026
:1008A000672B682B692BA9F38E010F5F1F4F6E0119
:1008B0002FEBC21A2EEFD20A780180E00E94C2000C
:1008C000F701608371838283938381E00E94C20079
:1008D000F7016483758386839783F8E0EF0EF11C3C
:1008E000EC14FD0451F7789420E030E0F8014081E9
:1008F000518162817381C480D580E680F780411583
:1009000051056105710529F0C114D104E104F10418
:1009100021F41092A50780E031C0F90183E0F5953C
:10092000E7958A95E1F7EC56F84F8081880F4C15D2
:100930005D056E057F0508F4816080832F5F3F4F62
:10094000085F1F4F2832310589F62091980730E063
:10095000409194078091950790E0840F911D4091FC
:100960009607840F911D40919707840F911D992739
:100970002817390771F681E08093A507C05CDE4F28
:100980000FB6F894DEBF0FBECDBFDF91CF911F91A0
:100990000F91FF90EF90DF90CF9008954091DA058E
:1009A00050E0A091A306B091A406E9EDF5E060E067
:1009B00070E090E0641775076CF422813381A21710
:1009C000B30720F4281B390B338322836F5F7F4FDB
:1009D0003296F0CF0895E091A306F091A406EA5D67
:1009E000FE4F948385837683678308950F931F93C7
:1009F000942F2091A3063091A4062A5D3E4FF90161
:100A0000E60FF11D438150E060E070E0762F652F26
:100A1000542F4427F901E90FF11D9381490F511D0E
:100A2000611D711DF901E80FF11D83818F7090E048
:100A3000A0E0B0E0DC01992788278A019B01080F1C
:100A4000191F2A1F3B1FC901B8011F910F9108955B
:100A50000F931F93942F2091A3063091A4062A5D33
:100A60003E4FF901E60FF11D438150E060E070E078
:100A7000762F652F542F4427F901E90FF11D93813B
:100A8000490F511D611D711DF901E80FF11D838191
:100A9000807F90E0A0E0B0E0FCE0880F991FAA1FE3
:100AA000BB1FFA95D1F78A019B01080F191F2A1F56
:100AB0003B1FC901B8011F910F910895FC01848D5E
:100AC000DF01A80FB11DA35ABF4F2C91848D90E078
:100AD00001968F739927848FA689B7892C93A08953
:100AE000B1898C9180648C93938D848D981306C00A
:100AF0000288F389E02D80818F7D80830895EF92B5
:100B0000FF920F931F93CF93DF93EC0181E0888FC7
:100B10009B8D8C8D981305C0E889F989808185FDAE
:100B200024C0F62E0B8D10E00F5F1F4F0F7311279F
:100B3000E02E8C8DE8120CC00FB607FCFACFE889C6
:100B4000F989808185FFF5CFCE010E945E05F1CF46
:100B50008B8DFE01E80FF11DE35AFF4FF0820B8FE2
:100B6000EA89FB898081806207C0EE89FF89608302
:100B7000E889F98980818064808381E090E0DF9159
:100B8000CF911F910F91FF90EF900895CF93DF9336
:100B9000EC01888D8823C9F0EA89FB89808185FD75
:100BA00005C0A889B9898C9186FD0FC00FB607FCD6
:100BB000F5CF808185FFF2CFA889B9898C9185FF17
:100BC000EDCFCE010E945E05E7CFDF91CF91089572
:100BD0003FB7F8948091A7079091A807A091A90723
:100BE000B091AA0726B5A89B05C02F3F19F0019622
:100BF000A11DB11D3FBFBA2FA92F982F8827820FA3
:100C0000911DA11DB11DBC01CD0142E0660F771FF2
:100C1000881F991F4A95D1F7089585EA96E00E94AA
:100C2000320121E0892B09F420E0822F08950E94EF
:100C300060111F920F920FB60F9211242F933F93C2
:100C40004F935F936F937F938F939F93AF93BF93D4
:100C5000EF93FF9385EA96E00E945E05FF91EF9186
:100C6000BF91AF919F918F917F916F915F914F91C4
:100C70003F912F910F900FBE0F901F9018951F92CC
:100C80000F920FB60F9211242F938F939F93EF9390
:100C9000FF93E091B506F091B6068081E091BB0626
:100CA000F091BC0682FD12C090818091BE068F5FDC
:100CB0008F732091BF06821751F0E091BE06F0E0DD
:100CC000EB55F94F958F8093BE0601C08081FF914F
:100CD000EF919F918F912F910F900FBE0F901F90CA
:100CE000189590E0FC01E65EFE4F3491FC01E45063
:100CF000FF4F2491FC01E851FF4FE491EE2309F4EA
:100D00003BC0332339F1333091F038F43130A9F05E
:100D1000323001F584B58F7D12C0373091F0383014
:100D2000A1F03430B9F4809180008F7D03C08091B0
:100D300080008F77809380000DC084B58F7784BD4D
:100D400009C08091B0008F7703C08091B0008F7D83
:100D50008093B000F0E0EE0FFF1FE05FFE4FA59123
:100D6000B4918FB7F894EC91611103C020952E23B4
:100D700001C02E2B2C938FBF0895CF93DF9390E06B
:100D8000FC01E450FF4F2491FC01E851FF4F849196
:100D9000882361F190E0880F991FFC01E253FF4F17
:100DA000C591D491FC01E05FFE4FA591B491611112
:100DB00009C09FB7F8948881209582238883EC919D
:100DC0002E230BC0623061F49FB7F8943881822FD4
:100DD000809583238883EC912E2B2C939FBF06C094
:100DE0008FB7F894E8812E2B28838FBFDF91CF91A6
:100DF00008958230910538F0880F991F880F991F48
:100E000005970197F1F708958F929F92AF92BF9245
:100E1000CF92DF92EF92FF926B017C010E94E80576
:100E20004B015C01C114D104E104F104F1F00E9412
:100E3000E805DC01CB0188199909AA09BB09883E9C
:100E40009340A105B10570F321E0C21AD108E10871
:100E5000F10888EE880E83E0981EA11CB11CC11415
:100E6000D104E104F10419F7DDCFFF90EF90DF909A
:100E7000CF90BF90AF909F908F9008951F920F9248
:100E80000FB60F9211242F933F938F939F93AF939D
:100E9000BF938091220190912301A0912401B091F0
:100EA00025013091A60723E0230F2D3720F401966A
:100EB000A11DB11D05C026E8230F0296A11DB11D7D
:100EC0002093A6078093220190932301A0932401ED
:100ED000B09325018091A7079091A807A091A90739
:100EE000B091AA070196A11DB11D8093A707909309
:100EF000A807A093A907B093AA07BF91AF919F91AC
:100F00008F913F912F910F900FBE0F901F901895CA
:100F10008EBD00000DB407FEFDCF8EB5089590E0A4
:100F20008830910590F5FC01E75AFF4F0C94C30FF0
:100F3000662321F15A9A0895662311F05C9A089568
:100F40005C980895662311F05F9A08955F9808955C
:100F5000662311F0289A089528980895662311F0C1
:100F6000409A089558980895662311F0419A08957B
:100F700059980895662311F0429A08955A98089551
:100F8000662311F0439A08955B980895CF92DF92FB
:100F9000EF92FF920F931F93CF93DF936C017A012F
:100FA0008B01C0E0D0E0CE15DF0589F0D8016D914E
:100FB0008D01D601ED91FC910190F081E02DC601EB
:100FC0000995892B11F47E0102C02196ECCFC7014F
:100FD000DF91CF911F910F91FF90EF90DF90CF9015
:100FE0000895CF93DF93CDB7DEB765970FB6F8942A
:100FF000DEBF0FBECDBF789484B5826084BD84B55A
:10100000816084BD85B5826085BD85B5816085BD03
:1010100080916E00816080936E00109281008091BB
:101020008100826080938100809181008160809343
:101030008100809180008160809380008091B10068
:1010400084608093B1008091B00081608093B00093
:1010500080917A00846080937A0080917A00826027
:1010600080937A0080917A00816080937A008091E9
:101070007A00806880937A001092C10061E082E07B
:101080000E94BD0661E084E00E94BD0661E087E049
:101090000E94BD0661E088E00E94BD0661E08EE02E
:1010A0000E94BD0661E08FE00E94BD0661E080E124
:1010B0000E94BD0661E081E10E94BD0680917E072D
:1010C00090917F07891719F061E00E94BD06809119
:1010D0007F0790917E07981719F061E00E94BD0686
:1010E0000FB7F89480911401811127C0E2EFF0E06E
:1010F0008491E6E0F1E09491E82FF0E0EE0FFF1F1D
:10110000E253FF4FA591B491EC91E92321F461E002
:101110008AE00E94710661E08AE00E94BD068CB5FB
:1011200080618CBD8CB580648CBD61E08DE00E94D7
:10113000BD0661E08BE00E94BD06809114018F5FC7
:10114000809314010FBF80E00E94E20181E00E94C1
:10115000480165E070E080E090E00E9404076CE0E8
:1011600080E00E9495016FE584E00E94950186E091
:101170000E947E01877D082F00628BE990E0A0E04D
:10118000B0E080938C0790938D07A0938E07B09367
:101190008F07602F86E00E94950186E00E947E0105
:1011A000801709F476C686E00E947E0186E00E94E0
:1011B0007E0145E550E060E070E040938C0750937D
:1011C0008D0760938E0770938F07682F677D86E089
:1011D0000E94950186E00E947E010E94650180E5E3
:1011E0000E94880783E70E9488070E94620160E0EE
:1011F0008DE10E94950160E08CE10E94950160E71D
:1012000087E00E9495016CE485E00E94950182EEE2
:101210000E9468010E947B010E94EB0180E00E9415
:101220007E01682F6E7F80E00E9495018090760796
:1012300090907707A0907807B090790789869A8672
:10124000AB86BC861D861E861F86188A40918A073B
:10125000BE01675F7F4F8AE00E94B20140918A071A
:10126000BE01675F7F4F80E10E94B20160918307FA
:1012700081E10E94950180907A0790907B07A09071
:101280007C07B0907D0789829A82AB82BC821D82E6
:101290001E821F821886E9ECF0E0849140918A0753
:1012A000BE016F5F7F4F0E94B201E3ECF0E08491DA
:1012B000609183070E94950182E00E947E01E3EE27
:1012C000F0E0E49161E070E001C0660FEA95EAF7B2
:1012D000682B82E00E94950160E081E00E94950108
:1012E0008DE10E947E01682F64608DE10E9495016E
:1012F0008CE10E947E01682F6F638CE10E94950152
:1013000081E0809384070E94FC0162E0809199074C
:101310000E94BD0680E398EFAFEFBFEF80939D077B
:1013200090939E07A0939F07B093A0078FB7F89460
:1013300020912201309123014091240150912501F7
:10134000298B3A8B4B8B5C8B8FBF8FB7F894409077
:1013500022015090230160902401709025018FBFDD
:1013600087E10E947E01382F3170F32E80FD5FC02F
:101370000E94650180E60E9488078FEF0E9488071F
:101380008D8B0E9462018D89813250F082EE0E9425
:10139000680162E070E080E090E00E94040701C014
:1013A000F82E009183070F1508F4F02E8091840722
:1013B000811102C00F1901C000E00E94650181E6A1
:1013C0000E94880754E5C52E57E0D52EFC0CFC146E
:1013D00039F08FEF0E948807F60181936F01F7CFF4
:1013E000002329F08FEF0E9488070150F9CF0E9457
:1013F000620160E787E00E94950190915407809117
:101400007507981314C0909155078091430798175A
:1014100051F082E1E4E5F7E0A2E4B7E001900D923B
:101420008A95E1F707C00E94B30210E040C3112380
:1014300009F43DC3E09156078E2F90E0FC013197EF
:10144000E930F10508F032C3EC5CFF4F0C94C30F98
:1014500080915507809366078091D905809367072F
:1014600080911501809369070E94850263E0D6C0D0
:101470000E94CE038823C9F180919A078B3029F00E
:10148000A0F18551823048F030C06091960770E03D
:1014900080E090E00E9465102CC010919607612FAB
:1014A0006F7770E080E090E00E94671020E030E00D
:1014B00040E853E40E94F3106B017C0160919707B0
:1014C00070E080E090E00E9467109B01AC01C701D2
:1014D000B6010E94CA0F2DEC3CEC4CEC5DE30E947F
:1014E000F31017FF06C0905804C060E070E080EC75
:1014F0009FE76093160170931701809318019093F2
:1015000019010E94CE038823A9F180919A078B309C
:1015100039F180F18551823068F56091940770E06F
:1015200080E090E00E94651020E030E040E853E465
:101530000E94F3106B017C016091950770E080E0E0
:1015400090E00E9467109B01AC01C701B6010E94A8
:10155000CA0F2DEC3CEC4CEC5DE30E94F31007C08D
:101560006091940770E080E090E00E9465104B016C
:101570005C0106C0812C912C40ECA42E4FE7B42EC8
:1015800080921A0190921B01A0921C01B0921D0141
:1015900080915507809366078091D90580936707EE
:1015A0008091150180936907609116017091170170
:1015B00080911801909119010E943610D62E062FA5
:1015C00010E0FF0CEE08FE2CE0926A07110F000BF2
:1015D000102F00936B0710926C07D0926D07C50116
:1015E000B4010E943610862F90E0330F220B322F69
:1015F00020936E07990F880B982F80936F07109296
:10160000700760937107E09272070093730710925E
:101610007407D09275070E9485026FE086E697E016
:101620000E9432020E94FC0141C20E94B3028091DA
:10163000270190912801009729F0019690932801A5
:10164000809327012091270130912801909157071D
:10165000E92FF0E005E0F595E7950A95E1F7319778
:10166000D901AA5DBE4F609158075091590740912A
:101670005A0780915B07E730F10598F4E35CFF4F70
:1016800013969C93139714966C93149715965C93EA
:10169000159716964C93169717968C9317970C944C
:1016A000C30F13969C93139714966C9314971596E7
:1016B0005C93159716964C93169717968C9395E016
:1016C000C1C080915C0718968C9396E0BBC0809156
:1016D0005D0718968C93189780915E0719968C93E6
:1016E0001997809165071A968C9398E0ABC080910A
:1016F0005C0718968C93189780915D0719968C93C8
:10170000199780915E071A968C931A9780915F07BC
:1017100011C080915D0718968C93189780915E0791
:1017200019968C931997809160071A968C931A9743
:10173000809161071B968C931B97809165071C967F
:101740008C939AE07FC080915C0718968C931897D1
:1017500080915D0719968C93199780915E071A9670
:101760008C931A9780915F071B968C931B9780919F
:1017700060071C968C931C97809161071D968C9333
:101780001D97809162071E968C931E978091650726
:101790001F968C939DE056C080915D0718968C93A0
:1017A000189780915E0719968C931997809160071E
:1017B0001A968C931A97809161071B968C931B97AE
:1017C000809163071C968C931C97809164071D96EB
:1017D0008C931D97809165071E968C939CE032C078
:1017E00080915C0718968C93189780915D071996E5
:1017F0008C93199780915E071A968C931A97809113
:101800005F071B968C931B97809160071C968C93A7
:101810001C97809161071D968C931D97809162079C
:101820001E968C931E97809163071F968C931F972B
:101830008091640750968C935097809165075196DC
:101840008C939FE0A901415051098A01090F111D94
:101850001093280100932701C9010E94010326C1AA
:101860000E94B3024091580750E060E070E0742F8E
:1018700066275527442790915907892F90E0A0E0CB
:10188000B0E0DC0199278827480F591F6A1F7B1F8A
:1018900080915B078A019B01080F111D211D311DDD
:1018A000D901C80140915A0750E060E070E0762FFE
:1018B000652F542F4427480F591F6A1F7B1F009123
:1018C000270110912801B091570780E090E0801720
:1018D000910708F050C0FC01EA5DFE4F248185802D
:1018E000A6813781E381EB1327C0912CA12CB12C69
:1018F000540199248824C22ED12CE12CF12CFC2CEB
:10190000EE24DD24CC248C0C9D1CAE1CBF1C830E4D
:10191000911CA11CB11CCA2ED12CE12CF12CFE2C47
:10192000ED2CDC2CCC248C0C9D1CAE1CBF1C841616
:101930009506A606B706F1F0F0E025E0F595E795E7
:101940002A95E1F73197E730F10580F4EC5BFF4F22
:101950000C94C30F26E00BC028E009C02AE007C0A2
:101960002DE005C02CE003C02FE001C025E0820F70
:10197000911DADCF8C0180E09091DA05891788F434
:10198000E82FF0E0EE0FFF1FE552FA4F2081318182
:101990002017310721F40E94E7028091DA058F5F5A
:1019A000EBCFF801EA5DFE4FE381F0E0A5E0F595AD
:1019B000E795AA95E1F73197E730F10580F4E55B0B
:1019C000FF4F0C94C30F66E00BC068E009C06AE0EB
:1019D00007C06DE005C06CE003C06FE001C065E0CA
:1019E000C8010E94C30262C00E94B30261E003C04A
:1019F0000E94B30260E0809157070E948F0756C093
:101A00000E94B3028091DA0590E0EBEDF5E020E072
:101A100030E02817390728F4119211922F5F3F4FB9
:101A2000F8CF1092DA05209127013091280180E04B
:101A300090E08217930731F0FC01EA5DFE4F1382BC
:101A40000196F7CF10922801109227012FC00E9413
:101A5000B3028091DA0590E0EBEDF5E020E030E0B4
:101A60002817390728F4119211922F5F3F4FF8CFB2
:101A70001092DA05209127013091280180E090E052
:101A80008217930731F0FC01EA5DFE4F1382019645
:101A9000F7CF109228011092270102C00E94B302D2
:101AA00068EE73E080E090E00E94040711E080910E
:101AB000DA05882309F4EAC1E090DB05F090DC0543
:101AC00078EE872E73E0972EA12CB12C69897A8944
:101AD0008B899C89A50194010E948F11B7016A5DD1
:101AE0007E4F1B01FB01848190E0A0E0B0E0F82E66
:101AF000EE24DD24CC24858190E0A0E0B0E0DC0180
:101B0000992788278C0D9D1DAE1DBF1D6781860FEF
:101B1000911DA11DB11D6681C62ED12CE12CF12C89
:101B2000FE2CED2CDC2CCC248C0D9D1DAE1DBF1D80
:101B3000281739074A075B0708F4A8C1C301B20197
:101B4000A50194010E948F119B01AC01AFEFB0E0A1
:101B50000E94841127EE33E040E050E00E946511BE
:101B6000F1018085281708F491C1838181FB6627E4
:101B700060F98C71869586950E948F078091DB05B0
:101B80009091DC059093A4068093A3069C012A5DA6
:101B90003E4F7901F9018480912CA12CB12CB82CF5
:101BA000AA24992488249581892F90E0A0E0B0E0B0
:101BB000DC0199278827880E991EAA1EBB1E8781E3
:101BC000A5019401280F311D411D511DDA01C901E4
:101BD0008680912CA12CB12CBA2CA92C982C88246D
:101BE000880E991EAA1EBB1E8381E82FF0E065E0D7
:101BF000F595E7956A95E1F73197E730F10520F41F
:101C0000EE5AFF4F0C94C30F80E00E94E70285E07C
:101C10000E94CE0465E02CC180E00E94E70286E0CD
:101C20000E94CE0466E024C180FD08C093E08927AD
:101C3000F701838346E065E087E023C080E00E94EF
:101C4000E70288E00E94CE0468E012C180FD08C06F
:101C500093E08927F701838347E066E089E024C0A9
:101C600080E00E94E7028AE00E94CE046AE000C1A0
:101C700093E080FD09C08927F701838346E065E092
:101C800089E00E94280569C08927F701838348E01D
:101C900067E089E060C093E080FD29C08927F701F3
:101CA000838347E066E08CE00E942805680D791D7B
:101CB0008A1D9B1DF7014385208530E0240F311DCF
:101CC0002F3F310529F020F06F5F7F4F8F4F9F4FDF
:101CD0000E94EB048091A3069091A406FC01E55DAF
:101CE000FE4FDC01AA5DBE4F1B969C91ADC08927BB
:101CF000F70183834AE069E08CE084C0F701C48483
:101D0000D12CDC2CCC249585C90ED11CC114D10456
:101D100059F193E080FD19C08927838346E065E08F
:101D20008BE00E942805680D791D8A1D9B1D0E946D
:101D3000EB04F1E0CF1AD108E091A306F091A406DC
:101D4000EA5DFE4FD486C58682C08927F70183836A
:101D500048E067E08BE00E94F604680D791D8A1D5B
:101D60009B1D0E94EB0473C080E00E94E7028CE0A0
:101D70000E94CE046CE07CC0F701C784D12CDC2C1F
:101D8000CC249089C90ED11CC114D10409F469C0B6
:101D900093E080FD31C08927838347E066E08EE0D1
:101DA0000E942805680D791D8A1D9B1DF70143853A
:101DB000208530E0240F311D2F3F310529F020F020
:101DC0006F5F7F4F8F4F9F4F0E94EB04E091A30600
:101DD000F091A406DF01A55DBE4FEA5DFE4F93853D
:101DE00013968C911397890F13968C9301E0C01A68
:101DF000D108D786C08A2BC08927F70183834AE0A0
:101E000069E08EE00E94F604680D791D8A1D9B1D15
:101E1000F7014685208530E0240F311D2F3F310525
:101E200029F020F06F5F7F4F8F4F9F4F0E94EB0490
:101E30008091A3069091A406FC01E55DFE4FDC01B4
:101E4000AA5DBE4F1E969C918381890F838380E09B
:101E50000E94E7028091A3069091A4060E940103CC
:101E600015C080E00E94E7028FE00E94CE046FE080
:101E70008091A3069091A4060E94C30281E09091F4
:101E8000DA05933608F480E08093D9050E943E017C
:101E90004DCA81E08093820786C9E5EAF6E01382A5
:101EA000128288EE93E0A0E0B0E084839583A6835D
:101EB000B78388E091E09183808385EC90E09587FB
:101EC000848784EC90E09787868780EC90E0918B04
:101ED000808B81EC90E0938B828B82EC90E0958BF1
:101EE000848B86EC90E0978B868B118E128E138EEE
:101EF000148EA4E9B7E082E015968C93159786E1DD
:101F000016968C931697EEEFF0E0E4911796EC930B
:101F10001797EAEEF0E0E4911896EC93189740E8F2
:101F20005EE360E070E01D964D935D936D937C934E
:101F30005097EEE7F7E089E080838AE0818314829E
:101F400080E28583168285E0848785E090E0A0E0CA
:101F5000B0E0828B938BA48BB58B1782E2E4F7E021
:101F600081E083AB81E79DECABEABDEC84AB95AB44
:101F7000A6ABB7AB8CE798E6A2E5BDE480AF91AF26
:101F8000A2AFB3AF0895EE0FFF1F0590F491E02DBF
:101F900009945058BB27AA270E94E10F0C94B9104E
:101FA0000E94AB1038F00E94B21020F039F49F3F2D
:101FB00019F426F40C94A8100EF4E095E7FB0C94A9
:101FC000A210E92F0E94CA1058F3BA1762077307CC
:101FD0008407950720F079F4A6F50C94EC100EF424
:101FE000E0950B2EBA2FA02D0B01B90190010C0129
:101FF000CA01A0011124FF27591B99F0593F50F441
:10200000503E68F11A16F040A22F232F342F442798
:10201000585FF3CF469537952795A795F040539590
:10202000C9F77EF41F16BA0B620B730B840BBAF060
:102030009150A1F0FF0FBB1F661F771F881FC2F7CB
:102040000EC0BA0F621F731F841F48F487957795DF
:102050006795B795F7959E3F08F0B0CF9395880F99
:1020600008F09927EE0F9795879508950E94D21052
:1020700088F09F5798F0B92F9927B751B0F0E1F049
:10208000660F771F881F991F1AF0BA95C9F714C0F9
:10209000B13091F00E94EC10B1E008950C94EC1076
:1020A000672F782F8827B85F39F0B93FCCF3869532
:1020B00077956795B395D9F73EF49095809570958F
:1020C00061957F4F8F4F9F4F0895E89409C097FB0C
:1020D0003EF490958095709561957F4F8F4F9F4FFF
:1020E0009923A9F0F92F96E9BB279395F695879543
:1020F00077956795B795F111F8CFFAF4BB0F11F406
:1021000060FF1BC06F5F7F4F8F4F9F4F16C08823AC
:1021100011F096E911C0772321F09EE8872F762FE2
:1021200005C0662371F096E8862F70E060E02AF023
:102130009A95660F771F881FDAF7880F969587950F
:1021400097F9089597F99F6780E870E060E0089537
:102150009FEF80EC089500240A94161617061806BF
:102160000906089500240A9412161306140605069B
:102170000895092E0394000C11F4882352F0BB0F2C
:1021800040F4BF2B11F460FF04C06F5F7F4F8F4F8F
:102190009F4F089557FD9058440F551F59F05F3FCA
:1021A00071F04795880F97FB991F61F09F3F79F079
:1021B00087950895121613061406551FF2CF4695FB
:1021C000F1DF08C0161617061806991FF1CF86957D
:1021D0007105610508940895E894BB276627772761
:1021E000CB0197F908950E9406110C94B9100E9432
:1021F000AB1038F00E94B21020F0952311F00C942F
:10220000A2100C94A81011240C94ED100E94CA1076
:1022100070F3959FC1F3950F50E0551F629FF00139
:10222000729FBB27F00DB11D639FAA27F00DB11D52
:10223000AA1F649F6627B00DA11D661F829F2227DB
:10224000B00DA11D621F739FB00DA11D621F839F62
:10225000A00D611D221F749F3327A00D611D231F38
:10226000849F600D211D822F762F6A2F11249F5786
:1022700050409AF0F1F088234AF0EE0FFF1FBB1F89
:10228000661F771F881F91505040A9F79E3F510548
:1022900080F00C94A2100C94ED105F3FE4F3983E94
:1022A000D4F3869577956795B795F795E7959F5FF2
:1022B000C1F7FE2B880F911D9695879597F9089584
:1022C00081E090E0F8940C94C011052E97FB1EF469
:1022D00000940E947C1157FD07D00E948F1107FCCB
:1022E00003D04EF40C947C11509540953095219577
:1022F0003F4F4F4F5F4F0895909580957095619532
:102300007F4F8F4F9F4F08950E94B111A59F900D51
:10231000B49F900DA49F800D911D11240895A1E2FA
:102320001A2EAA1BBB1BFD010DC0AA1FBB1FEE1F4F
:10233000FF1FA217B307E407F50720F0A21BB30B9A
:10234000E40BF50B661F771F881F991F1A9469F716
:1023500060957095809590959B01AC01BD01CF0172
:102360000895A29FB001B39FC001A39F700D811D6E
:102370001124911DB29F700D811D1124911D08958E
:04238000F894FFCFFF
:1023840001000000000000007F05C60732011001B3
:042394002401C60555
:00000001FF
